:100000000C942E020C9456020C9456020C94C809BF
:100010000C94C8090C94C8090C9456020C9456020E
:100020000C9456020C9456020C9456020C945602F0
:100030000C9456020C9456020C9456020C945602E0
:100040000C941A070C9456020C94CC050C94A6053B
:100050000C9456020C9456020C9456020C945602C0
:100060000C94420A0C9456020000000000000000AC
:1000700030787830300030006C6C6C00000000008C
:100080006C6CFE6CFE6C6C00307CC0780CF8300040
:1000900000C6CC183066C600386C3876DCCC7600EA
:1000A0006060C00000000000183060606030180020
:1000B000603018181830600000663CFF3C66000095
:1000C000003030FC30300000000000000070306074
:1000D000000000FC000000000000000000303000C4
:1000E000060C183060C0800078CCDCFCECCC7800CA
:1000F00030F030303030FC0078CC0C3860CCFC0074
:1001000078CC0C380CCC78001C3C6CCCFE0C0C0071
:10011000FCC0F80C0CCC78003860C0F8CCCC78006F
:10012000FCCC0C183060600078CCCC78CCCC78005B
:1001300078CCCC7C0C1870000000303000303000DF
:100140000000303000703060183060C0603018003F
:100150000000FC00FC0000006030180C183060004B
:1001600078CC0C18300030007CC6DEDEDEC07800B3
:100170003078CCCCFCCCCC00FC66667C6666FC009F
:100180003C66C0C0C0663C00FC6C6666666CFC00E9
:10019000FE6268786862FE00FE6268786860F0005F
:1001A0003C66C0C0CE663E00CCCCCCFCCCCCCC00F7
:1001B00078303030303078001E0C0C0CCCCC78000D
:1001C000E6666C786C66E600F06060606266FE0071
:1001D000C6EEFED6C6C6C600C6E6F6DECEC6C6006B
:1001E000386CC6C6C66C3800FC66667C6060F00081
:1001F00078CCCCCCDC781C00FC66667C786CE600A5
:1002000078CCE0381CCC7800FCB43030303078004A
:10021000CCCCCCCCCCCCFC00CCCCCCCCCC78300076
:10022000C6C6C6D6FEEEC600C6C66C386CC6C600CC
:10023000CCCCCC7830307800FECC983062C6FE0052
:100240007860606060607800C06030180C06020062
:10025000781818181818780010386CC600000000BC
:1002600000000000000000FF303018000000000017
:100270000000780C7CCC7600E0607C666666BC0092
:10028000000078CCC0CC78001C0C0C7CCCCC760068
:10029000000078CCFCC07800386C60F06060F00042
:1002A000000076CCCC7C0CF8E0606C766666E600EC
:1002B0003000703030307800180078181818D87076
:1002C000E060666C786CE60070303030303078007A
:1002D0000000ECFED6C6C6000000F8CCCCCCCC00AA
:1002E000000078CCCCCC78000000DC66667C60F046
:1002F000000076CCCC7C0C1E0000D86C6C60F0004A
:1003000000007CC0780CF80010307C3030341800CD
:100310000000CCCCCCCC76000000CCCCCC7830002B
:100320000000C6C6D6FE6C000000C66C386CC60065
:100330000000CCCCCC7C0CF80000FC983064FC00B5
:100340001C3030E030301C00181818001818180045
:10035000E030301C3030E00076DC000000000000AF
:1003600010386CC6C6C6FE0000000000240027003E
:100370002A0000000008000201000003040700003A
:1003800000000000000000000000250028002B00F5
:1003900000000000230026002900040404040404D3
:1003A0000404020202020202030303030303010224
:1003B00004081020408001020408102001020408F3
:1003C00010204128D441CF8300833041ED84640361
:1003D000128141E88385017941CB85392C003402B3
:1003E00041F7812041EA82000041C0812641C1815C
:1003F0001141C582353E41C781BE41B182001B41DA
:10040000F281084126810141E08F1F1A180A0F0668
:100410004587320A070207050041E18F00252705BD
:1004200010093A784D05180D383A1F41B6840A82F2
:10043000270041B78107413A8155413681E8412A79
:1004400082000082013F412B8200008200EF4111B7
:10045000FCFC4129D4FFFF00700B8A0C11241FBE45
:10046000CFEFD8E0DEBFCDBF11E0A0E0B1E0E8E023
:10047000FEE102C005900D92A236B107D9F723E044
:10048000A2E6B1E001C01D92AA32B207E1F712E084
:10049000CDE2D2E004C02197FE010E94EC0ECC32E6
:1004A000D107C9F70E94A60C0C94F70E0C9400001B
:1004B000CF92DF92EF92FF920F931F93CF93DF9330
:1004C0006C017A018B01C0E0D0E0CE15DF0589F028
:1004D000D8016D918D01D601ED91FC910190F081D3
:1004E000E02DC6010995892B11F47E0102C02196E9
:1004F000ECCFC701DF91CF911F910F91FF90EF904B
:10050000DF90CF900895FC01538D448D252F30E06E
:10051000842F90E0821B930B541710F0CF96089510
:1005200001970895FC01918D828D981761F0828D5D
:10053000DF01A80FB11D5D968C91928D9F5F9F7317
:10054000928F90E008958FEF9FEF0895FC01918DB9
:10055000828D981731F0828DE80FF11D858D90E026
:1005600008958FEF9FEF0895FC01918D228D892FC3
:1005700090E0805C9F4F821B91098F7399270895AB
:10058000FC01848DDF01A80FB11DA35ABF4F2C9130
:10059000848D90E001968F739927848FA689B789FF
:1005A0002C93A089B1898C9180648C93938D848DD8
:1005B000981306C00288F389E02D80818F7D8083A7
:1005C0000895EF92FF920F931F93CF93DF93EC0167
:1005D00081E0888F9B8D8C8D981305C0E889F989FF
:1005E000808185FD24C0F62E0B8D10E00F5F1F4F1C
:1005F0000F731127E02E8C8DE8120CC00FB607FC8C
:10060000FACFE889F989808185FFF5CFCE010E9474
:10061000C002F1CF8B8DFE01E80FF11DE35AFF4FB1
:10062000F0820B8FEA89FB898081806207C0EE89A6
:10063000FF896083E889F98980818064808381E013
:1006400090E0DF91CF911F910F91FF90EF9008956F
:10065000CF93DF93EC01888D8823C9F0EA89FB8969
:10066000808185FD05C0A889B9898C9186FD0FC060
:100670000FB607FCF5CF808185FFF2CFA889B98935
:100680008C9185FFEDCFCE010E94C002E7CFDF91B4
:10069000CF9108953FB7F8948091640290916502DC
:1006A000A0916602B091670226B5A89B05C02F3FB6
:1006B00019F00196A11DB11D3FBFBA2FA92F982F88
:1006C0008827820F911DA11DB11DBC01CD0142E003
:1006D000660F771F881F991F4A95D1F708955F9A73
:1006E0000895CF92EF92FF920F931F93CF93DF93D2
:1006F000EC01262F6A3081F48EAD9FAD9BAF8AAF9F
:100700002CA92F778CAD9DAD38E0239F800D911DD6
:1007100011249DAF8CAF47C0862F8B7F893009F4A1
:1007200042C06AAD7BAD203219F461157105D9F173
:10073000E881F981E8ACF9AC0EA91FA94CAD5DAD1B
:100740000488F589E02DCCA8CE010995BC019BAFAA
:100750008AAF8DA9882339F12CA92F77822F90E0B9
:1007600048EF4203900111244E815F81420F531FD5
:1007700046175707C4F44EAD5FAD5BAF4AAF43E0D9
:10078000880F991F4A95E1F74CAD5DAD840F951F19
:100790009DAF8CAF48855985240F351F2817390721
:1007A00014F41DAE1CAE81E090E0DF91CF911F915B
:1007B0000F91FF90EF90CF900895CF92EF92FF921C
:1007C0000F931F93DC01ED91FC910288F389E02DDA
:1007D00009951F910F91FF90EF90CF9008952F9260
:1007E0003F924F925F926F927F928F929F92AF92C1
:1007F000BF92CF92DF92EF92FF920F931F93CF930E
:10080000DF9300D01F92CDB7DEB79B838A83480168
:1008100088E0280290011124D901A859B0405D0157
:10082000BC2DBF77CB2EEA81FB8186819781F1E0D9
:10083000FB1708F463C06B0128E0C20ED11C8C15B5
:100840009D050CF46EC0AA81BB811896ED91FC91B8
:1008500019979A01285F3F4FE217F3070CF461C024
:10086000AA81BB81ED91FC9111978A01095F1F4F0D
:100870009B01295F3F4F0284F385E02DCD0109954F
:10088000AA81BB81ED91FC9111970484F585E02D3F
:10089000CD0109958501085F1F4FF5014490FFEFD9
:1008A000AF1ABF0A98E0692E712C20E8522EAA8157
:1008B000BB81ED91FC911197852D84210684F785EC
:1008C000E02D882319F0B401CD0103C0B7018A815E
:1008D0009B8109955694B1E06B1A710841F7A016F7
:1008E000B106D9F6AA81BB81ED91FC9111970088E0
:1008F000F189E02DCD010995C60176C0B8E0CB9E07
:10090000800111243B01600E711E861597054CF085
:10091000040F151FEA81FB812085318520173107DF
:1009200014F4019661C0AA81BB81ED91FC911197ED
:10093000015011090284F385E02D93012150310902
:10094000CD010995AA81BB81ED91FC911197048499
:10095000F585E02DCD0109952501B8E04B0E511C20
:10096000F5012490FFEFAF1ABF0A3C2C08E010E01D
:1009700080E8D82E8D2D82212C2DA1F0AA81BB815B
:10098000ED91FC9111970684F785E02DB401CD011E
:10099000298309952981215089F7D694015011099D
:1009A00049F710C0AA81BB81ED91FC911197068493
:1009B000F785E02DB701CD012983099529812150C3
:1009C00089F7EBCF3A943110D1CFA414B50409F0D4
:1009D000C7CFAA81BB81ED91FC9111970088F18965
:1009E000E02DCD010995C3010F900F900F90DF917D
:1009F000CF911F910F91FF90EF90DF90CF90BF901C
:100A0000AF909F908F907F906F905F904F903F90AE
:100A10002F9008950E94F20ECF93DF931F92CDB7CF
:100A2000DEB7872F5F982B9A2D989CB59F7B9CBD36
:100A30002D9A9CB590649CBD69830E94C1092B9A34
:100A40002D989CB59F7B9CBD2D9A9CB590649CBDB8
:100A50006981862F0E94C1095F9A0F90DF91CF9123
:100A60000895CF93DF931F92CDB7DEB7872F2B9AD0
:100A70002D989CB59F7B9CBD2D9A9CB590649CBD88
:100A800069830E94C1092B9A2D989CB59F7B9CBDC0
:100A90002D9A9CB590649CBD6981862F0F90DF9143
:100AA000CF910C94C109009769F0FC0101900020DE
:100AB000E9F73197AF01481B590BBC0182E691E081
:100AC0000C94580280E090E008958F929F92AF922C
:100AD000BF920F931F93CF93DF93CDB7DEB7A1974C
:100AE0000FB6F894DEBF0FBECDBF19A2423008F496
:100AF0004AE08E010F5D1F4F842E912CA12CB12C4A
:100B0000A50194010E94840EE62FB901CA0101508B
:100B10001109EA3014F4E05D01C0E95CD801EC93FE
:100B2000232B242B252B61F7C8010E945305A19686
:100B30000FB6F894DEBF0FBECDBFDF91CF911F91EE
:100B40000F91BF90AF909F908F9008951F920F923A
:100B50000FB60F9211242F933F934F935F936F9390
:100B60007F938F939F93AF93BF93EF93FF9382E60F
:100B700091E00E94C002FF91EF91BF91AF919F91D0
:100B80008F917F916F915F914F913F912F910F9036
:100B90000FBE0F901F9018951F920F920FB60F92D5
:100BA00011242F938F939F93EF93FF93E091720102
:100BB000F09173018081E0917801F091790182FDDB
:100BC00012C0908180917B018F5F8F7320917C0197
:100BD000821751F0E0917B01F0E0EE59FE4F958FC6
:100BE00080937B0101C08081FF91EF919F918F9154
:100BF0002F910F900FBE0F901F90189590E0FC0161
:100C0000EE58FC4F3491FC01E255FC4F2491FC015D
:100C1000E656FC4FE491EE2309F43BC0332339F14F
:100C2000333091F038F43130A9F0323001F584B529
:100C30008F7D12C0373091F03830A1F03430B9F4E4
:100C4000809180008F7D03C0809180008F7780939A
:100C500080000DC084B58F7784BD09C08091B0003D
:100C60008F7703C08091B0008F7D8093B000F0E05B
:100C7000EE0FFF1FEA57FC4FA591B4918FB7F89480
:100C8000EC91611103C020952E2301C02E2B2C93D3
:100C90008FBF0895CF93DF9390E0FC01E255FC4FA6
:100CA0002491FC01E656FC4F8491882361F190E089
:100CB000880F991FFC01E859FC4FC591D491FC01A4
:100CC000EA57FC4FA591B491611109C09FB7F89400
:100CD0008881209582238883EC912E230BC062307B
:100CE00061F49FB7F8943881822F8095832388839D
:100CF000EC912E2B2C939FBF06C08FB7F894E88100
:100D00002E2B28838FBFDF91CF910895CF93DF9350
:100D1000EC0161E089E00E944A06209711F460E04E
:100D200004C0CF3FD10531F461E089E0DF91CF917C
:100D30000C94FE05EBE7F3E0E491E330F9F048F4BE
:100D4000E130B9F0E230A1F584B5806284BDC8BD60
:100D500034C0E730E9F0E83019F1E43049F580912A
:100D60008000806280938000D0938B00C0938A00C3
:100D700024C084B5806884BDC7BD1FC08091800039
:100D8000806880938000D0938900C093880015C04C
:100D90008091B00080688093B000C093B3000DC014
:100DA0008091B00080628093B000C093B40005C011
:100DB000C038D1050CF0B8CFB2CFDF91CF910895F4
:100DC0008F929F92AF92BF92CF92DF92EF92FF925B
:100DD0006B017C010E944A034B015C01C114D104E8
:100DE000E104F104F1F00E944A03DC01CB0188190F
:100DF0009909AA09BB09883E9340A105B10570F382
:100E000021E0C21AD108E108F10888EE880E83E0DB
:100E1000981EA11CB11CC114D104E104F10419F7FE
:100E2000DDCFFF90EF90DF90CF90BF90AF909F907D
:100E30008F9008951F920F920FB60F9211242F9347
:100E40003F938F939F93AF93BF9380916002909154
:100E50006102A0916202B091630230915F0223E0CF
:100E6000230F2D3720F40196A11DB11D05C026E8E2
:100E7000230F0296A11DB11D20935F028093600293
:100E800090936102A0936202B09363028091640226
:100E900090916502A0916602B09167020196A11D32
:100EA000B11D8093640290936502A0936602B09393
:100EB0006702BF91AF919F918F913F912F910F90BA
:100EC0000FBE0F901F901895862F5F982B9A2D9824
:100ED0009CB59F7B9CBD2D9A9CB590649CBD0E9447
:100EE000C1095F9A0895862F5F982B982D989CB51D
:100EF0009F7B9CBD2D9A9CB590649CBD0E94C109AE
:100F00005F9A08956CE20E9473075F980895AF920C
:100F1000BF92CF92DF92EF92FF920F931F93CF93E6
:100F2000DF93EC015B017A0169016AE20E947307B9
:100F3000B501CE010E940C05B601CE010E940C0540
:100F40006BE2CE010E947307B701CE010E940C052F
:100F5000B801CE01DF91CF911F910F91FF90EF90DB
:100F6000DF90CF90BF90AF900C940C050F931F9320
:100F7000CF93DF93EC016930710519F06A35710583
:100F800071F48AE590E09D838C8380EF90E09F83ED
:100F90008E8380E491E09987888718E434C06231B9
:100FA000710519F0643B710571F484EB90E09D8349
:100FB0008C8380E491E09F838E8380EF90E099871B
:100FC000888718E320C06B31710521F07E7F6E3079
:100FD000710571F48EE091E09D838C8380EF90E049
:100FE0009F838E8380E491E09987888718E80BC0FF
:100FF0001D821C8280E491E09F838E8380EF90E0CD
:101000009987888718EE66E3CE010E947307612FE7
:10101000CE010E946407E881F98108851985015095
:1010200011092E813F81215031090284F385E02D81
:1010300040E050E060E070E0CE010995DF91CF9193
:101040001F910F9108958F929F92AF92BF92EF924E
:10105000FF920F931F93CF93DF93EC017B01E88105
:10106000F98108851985015011092E813F81215090
:1010700031090284F385E02D40E050E060E070E04B
:101080000995E881F9810484F585E02DCE01099563
:10109000AE81BF81288539850E94DD0E4B015C0140
:1010A00083E0B694A794979487948A95D1F7E881C2
:1010B000F98181149104A104B10409F444C00684A7
:1010C000F785E02DB701CE010995E881F981068405
:1010D000F785E02DB701CE010995E881F9810684F5
:1010E000F785E02DB701CE010995E881F9810684E5
:1010F000F785E02DB701CE010995E881F9810684D5
:10110000F785E02DB701CE010995E881F9810684C4
:10111000F785E02DB701CE010995E881F9810684B4
:10112000F785E02DB701CE010995E881F9810684A4
:10113000F785E02DB701CE01099581E0881A910865
:10114000A108B108B4CF0088F189E02DCE01DF916C
:10115000CF911F910F91FF90EF90BF90AF909F9014
:101160008F9009942091280330912903281739077B
:1011700071F49091270380912603981741F0E09134
:101180002703F0E0EA51FD4F808190E008958FEF52
:101190009FEF089508951F93CF93DF93DC015C9632
:1011A0002D913C915D972115310539F481E090E056
:1011B00013969C938E9312973DC05196ED91FC919E
:1011C000529750969C915097892F80951FB75E96A5
:1011D0004C915E9741FB772770F941FD6095F8943B
:1011E0004081772311F0492B01C048234083E90156
:1011F0002197F1F748E0508160FF02C0592B01C0F0
:1012000058235083E9012197F1F76695415099F7EA
:10121000772321F090818923808303C08081982BDC
:1012200090831FBF5C968D919C915D970197F1F71C
:1012300021E030E0C901DF91CF911F910895209105
:101240002803309129032817390771F48091260368
:101250002091270390E0805C9F4F821B910960E4FE
:1012600070E00E94C90E089580E090E008952091FA
:1012700028033091290328173907B9F490912703DF
:1012800080912603981789F0E0912703F0E0EA5156
:10129000FD4F80812091270330E02F5F3F4F2F7358
:1012A00033272093270390E008958FEF9FEF089551
:1012B00085ED8093BC008091BC0084FDFCCF109232
:1012C000C002089540919A02262F30E0240F311D6C
:1012D00021323105DCF42091C0022430C9F4FC0134
:1012E00080E090E0861758F430919A022191DC0159
:1012F000A858BD4FA30FB11D2C930196F3CF809139
:101300009A02680F60939A0280E0089581E0089540
:1013100082E0089508958FEF9FEF08958FEF9FEF7C
:1013200008958091770290E09195819591090895B3
:10133000CF93DF9300D0CDB7DEB7CB01642F4983C5
:101340005A830E9462094981842F5A81952F0F90F8
:101350000F90DF91CF910895CF93DF931F92CDB778
:10136000DEB7698361E0CE0101960E94620981E0E7
:1013700090E00F90DF91CF910895089580E090E084
:1013800008958EBD00000DB407FEFDCF8EB5089503
:101390001F920F920FB60F9211242F933F934F93EA
:1013A0005F936F937F938F939F93AF93BF93EF93CD
:1013B000FF93E0912803F0912903309709F451C07D
:1013C000968DA685B785858591FF04C09C9189235C
:1013D00029F447C09C91892309F043C0A389B489AB
:1013E0009C918589809589238C938689978901971B
:1013F000F1F7608D718DA685B785558538E020E0C1
:10140000CB010197F1F7822F90E095958795282FD2
:101410004C91452309F02068315091F7868D81FD6C
:1014200020958091260390E001968F739927309143
:101430002703381749F0A0912603B0E0AA51BD4F09
:101440002C938093260303C0868D8160868F828DC6
:10145000938D0197F1F7A389B4899C918589892B94
:101460008C93FF91EF91BF91AF919F918F917F915D
:101470006F915F914F913F912F910F900FBE0F9001
:101480001F9018951F920F920FB60F9211242F9351
:101490003F934F935F936F937F938F939F93AF93FC
:1014A000BF93EF93FF938091B900887F803609F452
:1014B0009CC068F5883209F45BC090F4803109F46F
:1014C00054C038F4882309F4F6C0883009F44DC0BC
:1014D000F6C0883109F44CC0803209F45DC0EFC019
:1014E000803409F468C048F4803309F455C0883367
:1014F00009F0E5C08093BF02D8C0803509F44FC021
:10150000883509F45DC0883409F0D9C0D6C088395F
:1015100009F4C7C0A8F4883709F467C038F48836DE
:1015200009F463C0803709F460C0C9C0883809F481
:10153000B8C0803909F45FC0803809F0C0C05BC012
:10154000803B09F486C038F4803A09F466C0883AD2
:1015500009F47FC0B4C0803C09F4A7C0883C09F4FA
:10156000A4C0883B09F48AC0AAC08091E50210C0DB
:101570009091E4028091E302981770F5E091E40203
:1015800081E08E0F8093E402F0E0ED53FD4F808107
:101590008093BB0085EC86C08093BF028EC0E09133
:1015A000E40281E08E0F8093E4028091BB00F0E0C2
:1015B000ED53FD4F80839091E4028091E3026EC071
:1015C000E091E40281E08E0F8093E4028091BB0001
:1015D000F0E0ED53FD4F80838091C20281116DC018
:1015E00081E08093C10284EA61C083E08093C002FD
:1015F0001092BE02CFCF8091BE02803208F051C05F
:10160000E091BE0281E08E0F8093BE028091BB000C
:10161000F0E0E256FD4F8083BDCF85EC8093BC00A7
:101620001092C0028091BE02803230F4E091BE027E
:10163000F0E0E256FD4F10826091BE0270E0E09152
:101640009C02F0919D028EE992E009951092BE02F3
:1016500036C084E08093C00210929B0210929A02DE
:10166000E0919802F0919902099580919A02811176
:1016700005C081E080939A0210927802E0919B026B
:1016800081E08E0F80939B02F0E0E858FD4F80814F
:101690008093BB0090919B0280919A02981708F466
:1016A00079CF85E88093BC000AC085EC8093BC00AC
:1016B0001092C00204C01092BF020E945809FF910C
:1016C000EF91BF91AF919F918F917F916F915F91BA
:1016D0004F913F912F910F900FBE0F901F90189533
:1016E000109265011092640188EE93E0A0E0B0E0F2
:1016F0008093660190936701A0936801B09369019C
:1017000024E031E0309363012093620125EC30E066
:1017100030936F0120936E0124EC30E0309371011F
:101720002093700120EC30E030937301209372011C
:1017300021EC30E0309375012093740122EC30E00D
:10174000309377012093760126EC30E030937901D5
:101750002093780110927B0110927C0110927D0100
:1017600010927E01109202021092010280930302F5
:1017700090930402A0930502B093060286E191E0E3
:10178000909300028093FF011092160210921502AE
:10179000109218021092170210921A021092190257
:1017A00010921C0210921B0260911D026E7F6D7FD1
:1017B00060931D026695617081E068278BE00E944E
:1017C000FE0561E08BE00E944A06E9EBF3E0E4915C
:1017D000E0930F02E5EAF3E0E491F0E0EE0FFF1F83
:1017E000EA57FC4F859194919093110280931002D7
:1017F00060E08AE00E944A0680911D0281FD04C0DB
:1018000061E08AE00E94FE058AE080930B02E8EB2B
:10181000F3E0E491E0930C02E4EAF3E0E491F0E019
:10182000EE0FFF1FE057FC4F8591949190930E02AD
:1018300080930D0210926B0210926A0288EE93E080
:10184000A0E0B0E080936C0290936D02A0936E02D2
:10185000B0936F0288E291E09093690280936802EE
:101860001092210210922002109223021092220262
:1018700080E491E0909325028093240280EF90E031
:10188000909327028093260210922D0210922C0230
:1018900010922B0210922A02109229021092280212
:1018A00010923502109234021092330210923202DA
:1018B000109231021092300210922F0210922E02DA
:1018C00010924E0210924F0210925002109251024A
:1018D00081E080935202809353021092550210923D
:1018E00054028FEF9FEF909357028093560210920D
:1018F0005D0210925C0210925B0210925A021092EA
:101900005902109258028AE391E090931F0280934B
:101910001E02089586E191E0909300028093FF01FA
:1019200080912803909129038F5F914071F4E09199
:101930001202F09113029081809114028095892304
:10194000808310922903109228030895789484B517
:10195000826084BD84B5816084BD85B5826085BDAB
:1019600085B5816085BD80916E00816080936E0039
:10197000109281008091810082608093810080912B
:1019800081008160809381008091800081608093DC
:1019900080008091B10084608093B1008091B0009C
:1019A00081608093B00080917A00846080937A0097
:1019B00080917A00826080937A0080917A008160C1
:1019C00080937A0080917A00806880937A001092E8
:1019D000C100239AE0917201F091730182E080834B
:1019E000E0916E01F0916F011082E0917001F09131
:1019F00071018FEC808310927A01E0917601F09171
:101A0000770186E08083E0917401F0917501808117
:101A100080618083E0917401F0917501808188601C
:101A20008083E0917401F0917501808180688083EA
:101A3000E0917401F091750180818F7D808361E078
:101A400088E00E944A06289861E089E00E944A06E0
:101A500061E087E00E944A0661E08DE00E944A064C
:101A600061E08BE00E944A0660E08CE00E944A063A
:101A700029985F9A61E086E00E944A065E9A109279
:101A80005E028CB5837F8CBD8CB58F7D8CBDCFB74E
:101A9000F89480917402811127C0E4EAF3E0849104
:101AA000E8EBF3E09491E82FF0E0EE0FFF1FE85928
:101AB000FC4FA591B491EC91E92321F461E08AE017
:101AC0000E94FE0561E08AE00E944A068CB58061B2
:101AD0008CBD8CB580648CBD61E08DE00E944A06AF
:101AE00061E08BE00E944A06809174028F5F8093D0
:101AF0007402CFBF8CB58C7F81608CBD8DB5816049
:101B00008DBD5F9A289862E370E080E090E00E94CB
:101B1000E006289A68E770E080E090E00E94E00626
:101B2000E2ECF3E08F010F5F1F4F64916F3FB1F163
:101B3000862F807C8038B9F0803C49F1803411F0E8
:101B4000F801F0CFC62FCF737F01DC2FFFEFEF1A24
:101B5000FF0ADD23C9F0F70164918EE192E00E9453
:101B60007307D150F3CFC62FCF737F01DC2FFFEF68
:101B7000EF1AFF0ADD2341F0F70164918EE192E054
:101B80000E946407D150F3CF0C0F111DD9CF6F7392
:101B900070E080E090E00E94E006D2CF60E070E06C
:101BA0008EE192E00E9423088CB58C7F8CBD8DB5B0
:101BB0008E7F8DBD8FE790E00E94860680917C002D
:101BC000816080937C0080917C00806480937C00A5
:101BD00087E080937A0080917A00806880937A0011
:101BE0008091B00080688093B0008091B0008360E5
:101BF0008093B0008091B10082608093B1006FEF5C
:101C00007FEF8EE192E00E942308C4E6D0E0812CB1
:101C1000912C54018A9480917A00806480937A0098
:101C200080917A0086FDFCCF0091780010917900B8
:101C300016950795169507951093760200937502F1
:101C400080E591E00E945305B80180E090E04AE011
:101C50000E94650587E591E00E9453059801A4E67E
:101C6000B0E00E94A60EA50194010E94650E6901D4
:101C70007A01122F8AE591E00E945305C701B6014F
:101C80007727882799274AE00E94650587E591E034
:101C90000E945305C11006C080E090E00E948606B5
:101CA0002998B9CF143630F08FEF90E00E94860665
:101CB000299AB1CF2FEFC29EC0011124BE010E940C
:101CC000B50ECB010E948606A6CF052E97FB1EF40B
:101CD00000940E947C0E57FD07D00E94840E07FCE2
:101CE00003D04EF40C947C0E509540953095219580
:101CF0003F4F4F4F5F4F0895909580957095619538
:101D00007F4F8F4F9F4F0895A1E21A2EAA1BBB1B36
:101D1000FD010DC0AA1FBB1FEE1FFF1FA217B307B7
:101D2000E407F50720F0A21BB30BE40BF50B661FCD
:101D3000771F881F991F1A9469F760957095809591
:101D400090959B01AC01BD01CF010895A29FB00108
:101D5000B39FC001A39F700D811D1124911DB29FDF
:101D6000700D811D1124911D0895AA1BBB1B51E10B
:101D700007C0AA1FBB1FA617B70710F0A61BB70BFB
:101D8000881F991F5A95A9F780959095BC01CD01A0
:101D9000089597FB072E16F4009407D077FD09D01D
:101DA0000E94B50E07FC05D03EF4909581959F4F9B
:101DB0000895709561957F4F08950E94A60E332374
:101DC00012F48A1B9B0B0C94E70E0E94A60EB7FF21
:101DD0000895821B930B0895EE0FFF1F0590F49159
:101DE000E02D099481E090E0F8940C94F70E12E055
:101DF000CDE2D2E004C0FE010E94EC0E2196CE326C
:081E0000D107C9F7F894FFCFE8
:101E080000000000E102580283022803B402920293
:101E1800A60200000000CB085802BE09CA081F0924
:101E28003709B20800000000AC099809BE098A0900
:101E380091098E098B090000000071035802BE0940
:101E4800BD09B6078707820731056F03EF03DD0376
:101E5800696E70757420000D0A0072656D617020DE
:021E6800000078
:107E0000112484B714BE81FFF0D085E080938100F7
:107E100082E08093C00088E18093C10086E0809377
:107E2000C20080E18093C4008EE0C9D0259A86E02C
:107E300020E33CEF91E0309385002093840096BBD3
:107E4000B09BFECF1D9AA8958150A9F7CC24DD24C4
:107E500088248394B5E0AB2EA1E19A2EF3E0BF2EE7
:107E6000A2D0813461F49FD0082FAFD0023811F036
:107E7000013811F484E001C083E08DD089C08234E0
:107E800011F484E103C0853419F485E0A6D080C0E4
:107E9000853579F488D0E82EFF2485D0082F10E0AE
:107EA000102F00270E291F29000F111F8ED06801E7
:107EB0006FC0863521F484E090D080E0DECF843638
:107EC00009F040C070D06FD0082F6DD080E0C81688
:107ED00080E7D80618F4F601B7BEE895C0E0D1E017
:107EE00062D089930C17E1F7F0E0CF16F0E7DF06D8
:107EF00018F0F601B7BEE89568D007B600FCFDCFD4
:107F0000A601A0E0B1E02C9130E011968C91119780
:107F100090E0982F8827822B932B1296FA010C0160
:107F200087BEE89511244E5F5F4FF1E0A038BF0790
:107F300051F7F601A7BEE89507B600FCFDCF97BE46
:107F4000E89526C08437B1F42ED02DD0F82E2BD052
:107F50003CD0F601EF2C8F010F5F1F4F84911BD097
:107F6000EA94F801C1F70894C11CD11CFA94CF0C13
:107F7000D11C0EC0853739F428D08EE10CD085E9AC
:107F80000AD08FE07ACF813511F488E018D01DD067
:107F900080E101D065CF982F8091C00085FFFCCF94
:107FA0009093C60008958091C00087FFFCCF809118
:107FB000C00084FD01C0A8958091C6000895E0E648
:107FC000F0E098E1908380830895EDDF803219F02E
:107FD00088E0F5DFFFCF84E1DECF1F93182FE3DFCA
:107FE0001150E9F7F2DF1F91089580E0E8DFEE27F6
:047FF000FF270994CA
:027FFE00040479
:0400000300007E007B
:00000001FF