:100000000C9435000C945D000C945D000C945D0024
:100010000C945D000C945D000C945D000C945D00EC
:100020000C945D000C945D000C945D000C945D00DC
:100030000C945D000C945D000C945D000C945D00CC
:100040000C94AF010C945D000C947D010C9457014D
:100050000C945D000C945D000C945D000C945D00AC
:100060000C945D000C945D00F90111241FBECFEFCC
:10007000D8E0DEBFCDBF11E0A0E0B1E0E0E8F6E0FF
:1000800002C005900D92A631B107D9F721E0A6E193
:10009000B1E001C01D92AE3BB207E1F710E0C5E34D
:1000A000D0E004C02197FE010E943303C433D1077E
:1000B000C9F70E9426020C943E030C940000CF92D4
:1000C000DF92EF92FF920F931F93CF93DF936C0118
:1000D0007A018B01C0E0D0E0CE15DF0589F0D801B0
:1000E0006D918D01D601ED91FC910190F081E02D93
:1000F000C6010995892B11F47E0102C02196ECCF2F
:10010000C701DF91CF911F910F91FF90EF90DF908A
:10011000CF900895089580E090E00895FC01538DFC
:10012000448D252F30E0842F90E0821B930B5417D1
:1001300010F0CF96089501970895FC01918D828D5E
:10014000981761F0828DDF01A80FB11D5D968C912B
:10015000928D9F5F9F73928F90E008958FEF9FEF36
:100160000895FC01918D828D981731F0828DE80FF2
:10017000F11D858D90E008958FEF9FEF0895FC01AC
:10018000918D228D892F90E0805C9F4F821B910979
:100190008F7399270895FC01848DDF01A80FB11D8D
:1001A000A35ABF4F2C91848D90E001968F739927AD
:1001B000848FA689B7892C93A089B1898C9180649A
:1001C0008C93938D848D981306C00288F389E02D5B
:1001D00080818F7D80830895EF92FF920F931F930C
:1001E000CF93DF93EC0181E0888F9B8D8C8D9813EA
:1001F00005C0E889F989808185FD24C0F62E0B8D24
:1002000010E00F5F1F4F0F731127E02E8C8DE81247
:100210000CC00FB607FCFACFE889F989808185FF09
:10022000F5CFCE010E94CB00F1CF8B8DFE01E80F00
:10023000F11DE35AFF4FF0820B8FEA89FB89808121
:10024000806207C0EE89FF896083E889F98980812F
:100250008064808381E090E0DF91CF911F910F91C6
:10026000FF90EF900895CF93DF93EC01888D882362
:10027000C9F0EA89FB89808185FD05C0A889B98913
:100280008C9186FD0FC00FB607FCF5CF808185FFEE
:10029000F2CFA889B9898C9185FFEDCFCE010E945C
:1002A000CB00E7CFDF91CF9108950E9439031F92D1
:1002B0000F920FB60F9211242F933F934F935F939A
:1002C0006F937F938F939F93AF93BF93EF93FF931E
:1002D00081E291E00E94CB00FF91EF91BF91AF913D
:1002E0009F918F917F916F915F914F913F912F914E
:1002F0000F900FBE0F901F9018951F920F920FB680
:100300000F9211242F938F939F93EF93FF93E0917C
:100310003101F09132018081E0913701F091380193
:1003200082FD12C0908180913A018F5F8F7320917E
:100330003B01821751F0E0913A01F0E0EF5DFE4F92
:10034000958F80933A0101C08081FF91EF919F9139
:100350008F912F910F900FBE0F901F9018951F92A5
:100360000F920FB60F9211242F933F938F939F9369
:10037000AF93BF9380911D0190911E01A0911F0129
:10038000B091200130911C0123E0230F2D3720F480
:100390000196A11DB11D05C026E8230F0296A11DDF
:1003A000B11D20931C0180931D0190931E01A09309
:1003B0001F01B09320018091180190911901A09123
:1003C0001A01B0911B010196A11DB11D8093180166
:1003D00090931901A0931A01B0931B01BF91AF91A3
:1003E0009F918F913F912F910F900FBE0F901F9073
:1003F0001895E1E2F1E01382128288EE93E0A0E02A
:10040000B0E084839583A683B78384E091E09183F1
:10041000808385EC90E09587848784EC90E09787D3
:10042000868780EC90E0918B808B81EC90E0938BC1
:10043000828B82EC90E0958B848B86EC90E0978B9E
:10044000868B118E128E138E148E0895CF93DF93A8
:10045000CDB7DEB7A1970FB6F894DEBF0FBECDBF04
:10046000789484B5826084BD84B5816084BD85B58F
:10047000826085BD85B5816085BD80916E0081609B
:1004800080936E0010928100809181008260809341
:100490008100809181008160809381008091800043
:1004A0008160809380008091B10084608093B1006E
:1004B0008091B00081608093B00080917A00846068
:1004C00080937A0080917A00826080937A00809194
:1004D0007A00816080937A0080917A0080688093AE
:1004E0007A001092C100239AE0913101F09132011B
:1004F00082E08083E0912D01F0912E011082E09145
:100500002F01F09130018FEC808310923901E0913E
:100510003501F091360186E08083E0913301F0915E
:100520003401808180618083E0913301F091340156
:10053000808188608083E0913301F0913401808173
:1005400080688083E0913301F091340180818F7D58
:10055000808380917C00816080937C0080917C000E
:10056000806480937C0087E080937A0080917A0099
:10057000806880937A008091B00080688093B0009A
:100580008091B00083608093B0008091B100826060
:100590008093B1003AE0C32ED12CE12CF12C809154
:1005A0007A00806480937A0080917A0086FDFCCF87
:1005B000809178009091790096958795969587958A
:1005C00090931701809316019C0140E050E019A21E
:1005D0008E010F5D1F4FCA01B901A70196010E944C
:1005E0001103605DF80162938F012115310541050A
:1005F000510589F7309761F001900020E9F73197B4
:10060000AF01401B510BB80181E291E00E945F00F5
:1006100042E050E062E171E081E291E00E945F001F
:10062000BECFA1E21A2EAA1BBB1BFD010DC0AA1F43
:10063000BB1FEE1FFF1FA217B307E407F50720F04B
:10064000A21BB30BE40BF50B661F771F881F991FC6
:100650001A9469F760957095809590959B01AC010F
:10066000BD01CF010895EE0FFF1F0590F491E02D1D
:10067000099481E090E0F8940C943E03F894FFCF45
:1006800000000000EC005F008E003301BF009D0001
:06069000B1000D0A00009C
:107E0000112484B714BE81FFF0D085E080938100F7
:107E100082E08093C00088E18093C10086E0809377
:107E2000C20080E18093C4008EE0C9D0259A86E02C
:107E300020E33CEF91E0309385002093840096BBD3
:107E4000B09BFECF1D9AA8958150A9F7CC24DD24C4
:107E500088248394B5E0AB2EA1E19A2EF3E0BF2EE7
:107E6000A2D0813461F49FD0082FAFD0023811F036
:107E7000013811F484E001C083E08DD089C08234E0
:107E800011F484E103C0853419F485E0A6D080C0E4
:107E9000853579F488D0E82EFF2485D0082F10E0AE
:107EA000102F00270E291F29000F111F8ED06801E7
:107EB0006FC0863521F484E090D080E0DECF843638
:107EC00009F040C070D06FD0082F6DD080E0C81688
:107ED00080E7D80618F4F601B7BEE895C0E0D1E017
:107EE00062D089930C17E1F7F0E0CF16F0E7DF06D8
:107EF00018F0F601B7BEE89568D007B600FCFDCFD4
:107F0000A601A0E0B1E02C9130E011968C91119780
:107F100090E0982F8827822B932B1296FA010C0160
:107F200087BEE89511244E5F5F4FF1E0A038BF0790
:107F300051F7F601A7BEE89507B600FCFDCF97BE46
:107F4000E89526C08437B1F42ED02DD0F82E2BD052
:107F50003CD0F601EF2C8F010F5F1F4F84911BD097
:107F6000EA94F801C1F70894C11CD11CFA94CF0C13
:107F7000D11C0EC0853739F428D08EE10CD085E9AC
:107F80000AD08FE07ACF813511F488E018D01DD067
:107F900080E101D065CF982F8091C00085FFFCCF94
:107FA0009093C60008958091C00087FFFCCF809118
:107FB000C00084FD01C0A8958091C6000895E0E648
:107FC000F0E098E1908380830895EDDF803219F02E
:107FD00088E0F5DFFFCF84E1DECF1F93182FE3DFCA
:107FE0001150E9F7F2DF1F91089580E0E8DFEE27F6
:047FF000FF270994CA
:027FFE00040479
:0400000300007E007B
:00000001FF