:100000000C942E020C9456020C9456020C94030687
:100010000C9403060C9403060C9456020C9456029E
:100020000C9456020C9456020C9456020C945602F0
:100030000C9456020C9456020C9456020C945602E0
:100040000C94810A0C9456020C9433090C940D09FB
:100050000C9456020C9456020C9456020C945602C0
:100060000C947D060C9456024128D441CF83008322
:100070003041ED846403128141E88385017941CBED
:1000800085392C00340241F7812041EA8200004189
:10009000C0812641C1811141C582353E41C781BE23
:1000A00041B182001B41F281084126810141E08F6C
:1000B0001F1A180A0F064587320A07020705004172
:1000C000E18F0025270510093A784D05180D383ABB
:1000D0001F41B6840A82270041B78107413A815502
:1000E000413681E8412A82000082013F412B820093
:1000F000008200EF4111FCFC4129D4FFFF00000009
:10010000000000000030787830300030006C6C6CFB
:1001100000000000006C6CFE6CFE6C6C00307CC05B
:10012000780CF8300000C6CC183066C600386C3841
:1001300076DCCC76006060C0000000000018306003
:100140006060301800603018181830600000663C9D
:10015000FF3C660000003030FC3030000000000042
:100160000000703060000000FC0000000000000093
:100170000000303000060C183060C0800078CCDC05
:10018000FCECCC780030F030303030FC0078CC0C17
:100190003860CCFC0078CC0C380CCC78001C3C6C63
:1001A000CCFE0C0C00FCC0F80C0CCC78003860C005
:1001B000F8CCCC7800FCCC0C183060600078CCCC4B
:1001C00078CCCC780078CCCC7C0C18700000003057
:1001D0003000303000000030300070306018306087
:1001E000C0603018000000FC00FC00000060301807
:1001F0000C1830600078CC0C18300030007CC6DE63
:10020000DEDEC078003078CCCCFCCCCC00FC66665E
:100210007C6666FC003C66C0C0C0663C00FC6C6648
:1002200066666CFC00FE6268786862FE00FE6268CA
:10023000786860F0003C66C0C0CE663E00CCCCCC96
:10024000FCCCCCCC0078303030303078001E0C0C38
:100250000CCCCC7800E6666C786C66E600F06060EA
:10026000606266FE00C6EEFED6C6C6C600C6E6F6EC
:10027000DECEC6C600386CC6C6C66C3800FC6666E4
:100280007C6060F00078CCCCCCDC781C00FC66662E
:100290007C786CE60078CCE0381CCC7800FCB4307C
:1002A0003030307800CCCCCCCCCCCCFC00CCCCCC1E
:1002B000CCCC783000C6C6C6D6FEEEC600C6C66C2C
:1002C000386CC6C600CCCCCC7830307800FECC98E8
:1002D0003062C6FE007860606060607800C06030A8
:1002E000180C060200781818181818780010386CC6
:1002F000C60000000000000000000000FF303018C1
:1003000000000000000000780C7CCC7600E0607CEF
:10031000666666BC00000078CCC0CC78001C0C0C73
:100320007CCCCC7600000078CCFCC07800386C60C7
:10033000F06060F000000076CCCC7C0CF8E0606CE3
:10034000766666E60030007030303078001800784D
:10035000181818D870E060666C786CE60070303061
:1003600030303078000000ECFED6C6C6000000F841
:10037000CCCCCCCC00000078CCCCCC78000000DC1D
:1003800066667C60F0000076CCCC7C0C1E0000D849
:100390006C6C60F00000007CC0780CF80010307CC1
:1003A00030303418000000CCCCCCCC76000000CC2F
:1003B000CCCC7830000000C6C6D6FE6C000000C66B
:1003C0006C386CC6000000CCCCCC7C0CF80000FC77
:1003D000983064FC001C3030E030301C00181818D5
:1003E0000018181800E030301C3030E00076DC00D7
:1003F000000000000010386CC6C6C6FE00000000F9
:1004000000240027002A000000000800020100006C
:1004100003040700000000000000000000000025A9
:100420000028002B00000000002300260029000403
:10043000040404040404040202020202020303038B
:100440000303030102040810204080010204081085
:100450002001020408102000E50C1D0B11241FBE12
:10046000CFEFD8E0DEBFCDBF11E0A0E0B1E0ECE31C
:10047000FDE102C005900D92A835B107D9F723E040
:10048000A8E5B1E001C01D92AE31B207E1F712E07C
:10049000CDE2D2E004C02197FE010E94860ECC324C
:1004A000D107C9F70E94390B0C94910E0C940000EF
:1004B000CF92EF92FF920F931F93CF93DF93EC01B4
:1004C000262F6A3081F48EAD9FAD9BAF8AAF2CA9E9
:1004D0002F778CAD9DAD38E0239F800D911D1124A9
:1004E0009DAF8CAF47C0862F8B7F893009F442C007
:1004F0006AAD7BAD203219F461157105D9F1E8813F
:10050000F981E8ACF9AC0EA91FA94CAD5DAD04882A
:10051000F589E02DCCA8CE010995BC019BAF8AAF2F
:100520008DA9882339F12CA92F77822F90E048EFED
:100530004203900111244E815F81420F531F4617E1
:100540005707C4F44EAD5FAD5BAF4AAF43E0880FD1
:10055000991F4A95E1F74CAD5DAD840F951F9DAF96
:100560008CAF48855985240F351F2817390714F497
:100570001DAE1CAE81E090E0DF91CF911F910F91F5
:10058000FF90EF90CF900895CF92EF92FF920F934C
:100590001F93DC01ED91FC910288F389E02D099510
:1005A0001F910F91FF90EF90CF9008952F923F925F
:1005B0004F925F926F927F928F929F92AF92BF9273
:1005C000CF92DF92EF92FF920F931F93CF93DF931F
:1005D00000D01F92CDB7DEB79B838A83480188E0A5
:1005E000280290011124D901A350B0405D01BC2D17
:1005F000BF77CB2EEA81FB8186819781F1E0FB17E3
:1006000008F463C06B0128E0C20ED11C8C159D0557
:100610000CF46EC0AA81BB811896ED91FC911997DC
:100620009A01285F3F4FE217F3070CF461C0AA81DB
:10063000BB81ED91FC9111978A01095F1F4F9B01CE
:10064000295F3F4F0284F385E02DCD010995AA81F2
:10065000BB81ED91FC9111970484F585E02DCD01CE
:1006600009958501085F1F4FF5014490FFEFAF1A10
:10067000BF0A98E0692E712C20E8522EAA81BB8116
:10068000ED91FC911197852D84210684F785E02D4D
:10069000882319F0B401CD0103C0B7018A819B8181
:1006A00009955694B1E06B1A710841F7A016B1068E
:1006B000D9F6AA81BB81ED91FC9111970088F1894F
:1006C000E02DCD010995C60176C0B8E0CB9E800132
:1006D00011243B01600E711E861597054CF0040F26
:1006E000151FEA81FB81208531852017310714F41D
:1006F000019661C0AA81BB81ED91FC9111970150D7
:1007000011090284F385E02D930121503109CD01B7
:100710000995AA81BB81ED91FC9111970484F5851F
:10072000E02DCD0109952501B8E04B0E511CF501D6
:100730002490FFEFAF1ABF0A3C2C08E010E080E8DD
:10074000D82E8D2D82212C2DA1F0AA81BB81ED9177
:10075000FC9111970684F785E02DB401CD01298322
:1007600009952981215089F7D6940150110949F73B
:1007700010C0AA81BB81ED91FC9111970684F78589
:10078000E02DB701CD01298309952981215089F7F1
:10079000EBCF3A943110D1CFA414B50409F0C7CFF0
:1007A000AA81BB81ED91FC9111970088F189E02D20
:1007B000CD010995C3010F900F900F90DF91CF915C
:1007C0001F910F91FF90EF90DF90CF90BF90AF906F
:1007D0009F908F907F906F905F904F903F902F9061
:1007E00008958F929F92AF92BF92EF92FF920F93D4
:1007F0001F93CF93DF93EC017B01E881F98108859A
:100800001985015011092E813F812150310902843F
:10081000F385E02D40E050E060E070E00995E8816C
:10082000F9810484F585E02DCE010995AE81BF8163
:10083000288539850E94770E4B015C0183E0B694D0
:10084000A794979487948A95D1F7E881F9818114C8
:100850009104A104B10409F444C00684F785E02D95
:10086000B701CE010995E881F9810684F785E02D6D
:10087000B701CE010995E881F9810684F785E02D5D
:10088000B701CE010995E881F9810684F785E02D4D
:10089000B701CE010995E881F9810684F785E02D3D
:1008A000B701CE010995E881F9810684F785E02D2D
:1008B000B701CE010995E881F9810684F785E02D1D
:1008C000B701CE010995E881F9810684F785E02D0D
:1008D000B701CE01099581E0881A9108A108B108F5
:1008E000B4CF0088F189E02DCE01DF91CF911F9127
:1008F0000F91FF90EF90BF90AF909F908F900994D1
:1009000020910A0230910B022817390771F4909157
:10091000090280910802981741F0E0910902F0E085
:10092000E853FE4F808190E008958FEF9FEF089588
:1009300008951F93CF93DF93DC015C962D913C913A
:100940005D972115310539F481E090E013969C9371
:100950008E9312973DC05196ED91FC91529750960F
:100960009C915097892F80951FB75E964C915E970A
:1009700041FB772770F941FD6095F894408177231A
:1009800011F0492B01C048234083E9012197F1F779
:1009900048E0508160FF02C0592B01C058235083AA
:1009A000E9012197F1F76695415099F7772321F0F6
:1009B00090818923808303C08081982B90831FBFFF
:1009C0005C968D919C915D970197F1F721E030E065
:1009D000C901DF91CF911F91089520910A023091B2
:1009E0000B022817390771F480910802209109023F
:1009F00090E0805C9F4F821B910960E470E00E9450
:100A0000630E089580E090E0089520910A023091ED
:100A10000B0228173907B9F4909109028091080256
:100A2000981789F0E0910902F0E0E853FE4F8081C9
:100A30002091090230E02F5F3F4F2F73332720931F
:100A4000090290E008958FEF9FEF089585ED809360
:100A5000BC008091BC0084FDFCCF1092A2010895DF
:100A600040917C01262F30E0240F311D21323105C9
:100A7000DCF42091A2012430C9F4FC0180E090E074
:100A8000861758F430917C012191DC01A65ABE4FA3
:100A9000A30FB11D2C930196F3CF80917C01680FB9
:100AA00060937C0180E0089581E0089582E00895DC
:100AB00008958FEF9FEF08958FEF9FEF0895809136
:100AC000590190E09195819591090895CF93DF9315
:100AD00000D0CDB7DEB7CB01642F49835A830E9483
:100AE00030054981842F5A81952F0F900F90DF9107
:100AF000CF910895CF93DF931F92CDB7DEB769836F
:100B000061E0CE0101960E94300581E090E00F90F7
:100B1000DF91CF910895089580E090E008950F93BC
:100B20001F93CF93DF93EC016930710519F06A359B
:100B3000710571F48AE590E09D838C8380EF90E0ED
:100B40009F838E8380E491E09987888718E434C07E
:100B50006231710519F0643B710571F484EB90E02A
:100B60009D838C8380E491E09F838E8380EF90E06F
:100B70009987888718E320C06B31710521F07E7F4B
:100B80006E30710571F48EE091E09D838C8380EF6F
:100B900090E09F838E8380E491E09987888718E8AE
:100BA0000BC01D821C8280E491E09F838E8380EFC6
:100BB00090E09987888718EE66E3CE010E94DA0AF2
:100BC000612FCE010E94CB0AE881F9810885198541
:100BD000015011092E813F81215031090284F38592
:100BE000E02D40E050E060E070E0CE010995DF913B
:100BF000CF911F910F9108958EBD00000DB407FE97
:100C0000FDCF8EB508951F920F920FB60F9211244B
:100C10002F933F934F935F936F937F938F939F9304
:100C2000AF93BF93EF93FF93E0910A02F0910B0211
:100C3000309709F451C0968DA685B785858591FFBB
:100C400004C09C91892329F447C09C91892309F011
:100C500043C0A389B4899C918589809589238C930D
:100C6000868997890197F1F7608D718DA685B78583
:100C7000558538E020E0CB010197F1F7822F90E015
:100C800095958795282F4C91452309F02068315080
:100C900091F7868D81FD20958091080290E0019664
:100CA0008F73992730910902381749F0A0910802F3
:100CB000B0E0A853BE4F2C938093080203C0868DEA
:100CC0008160868F828D938D0197F1F7A389B48916
:100CD0009C918589892B8C93FF91EF91BF91AF9166
:100CE0009F918F917F916F915F914F913F912F9144
:100CF0000F900FBE0F901F9018951F920F920FB676
:100D00000F9211242F933F934F935F936F937F9391
:100D10008F939F93AF93BF93EF93FF938091B9000D
:100D2000887F803609F49CC068F5883209F45BC07E
:100D300090F4803109F454C038F4882309F4F6C0E3
:100D4000883009F44DC0F6C0883109F44CC08032B7
:100D500009F45DC0EFC0803409F468C048F4803302
:100D600009F455C0883309F0E5C08093A101D8C0CB
:100D7000803509F44FC0883509F45DC0883409F026
:100D8000D9C0D6C0883909F4C7C0A8F4883709F497
:100D900067C038F4883609F463C0803709F460C04E
:100DA000C9C0883809F4B8C0803909F45FC08038F8
:100DB00009F0C0C05BC0803B09F486C038F4803ABB
:100DC00009F466C0883A09F47FC0B4C0803C09F4D5
:100DD000A7C0883C09F4A4C0883B09F48AC0AAC013
:100DE0008091C70110C09091C6018091C5019817EC
:100DF00070F5E091C60181E08E0F8093C601F0E0AE
:100E0000EB55FE4F80818093BB0085EC86C08093BC
:100E1000A1018EC0E091C60181E08E0F8093C601D2
:100E20008091BB00F0E0EB55FE4F80839091C601AE
:100E30008091C5016EC0E091C60181E08E0F809364
:100E4000C6018091BB00F0E0EB55FE4F808380919E
:100E5000A40181116DC081E08093A30184EA61C087
:100E600083E08093A2011092A001CFCF8091A001D6
:100E7000803208F051C0E091A00181E08E0F809394
:100E8000A0018091BB00F0E0E058FE4F8083BDCF11
:100E900085EC8093BC001092A2018091A001803269
:100EA00030F4E091A001F0E0E058FE4F1082609134
:100EB000A00170E0E0917E01F0917F0180E891E077
:100EC00009951092A00136C084E08093A20110928F
:100ED0007D0110927C01E0917A01F0917B010995EE
:100EE00080917C01811105C081E080937C0110928A
:100EF0005A01E0917D0181E08E0F80937D01F0E049
:100F0000E65AFE4F80818093BB0090917D018091D5
:100F10007C01981708F479CF85E88093BC000AC05B
:100F200085EC8093BC001092A20104C01092A10134
:100F30000E942605FF91EF91BF91AF919F918F91F4
:100F40007F916F915F914F913F912F910F900FBEC5
:100F50000F901F901895CF92DF92EF92FF920F9310
:100F60001F93CF93DF936C017A018B01C0E0D0E037
:100F7000CE15DF0589F0D8016D918D01D601ED9177
:100F8000FC910190F081E02DC6010995892B11F4A7
:100F90007E0102C02196ECCFC701DF91CF911F9156
:100FA0000F91FF90EF90DF90CF900895FC01538D4B
:100FB000448D252F30E0842F90E0821B930B541733
:100FC00010F0CF96089501970895FC01918D828DC0
:100FD000981761F0828DDF01A80FB11D5D968C918D
:100FE000928D9F5F9F73928F90E008958FEF9FEF98
:100FF0000895FC01918D828D981731F0828DE80F54
:10100000F11D858D90E008958FEF9FEF0895FC010D
:10101000918D228D892F90E0805C9F4F821B9109DA
:101020008F7399270895FC01848DDF01A80FB11DEE
:10103000A35ABF4F2C91848D90E001968F7399270E
:10104000848FA689B7892C93A089B1898C918064FB
:101050008C93938D848D981306C00288F389E02DBC
:1010600080818F7D80830895EF92FF920F931F936D
:10107000CF93DF93EC0181E0888F9B8D8C8D98134B
:1010800005C0E889F989808185FD24C0F62E0B8D85
:1010900010E00F5F1F4F0F731127E02E8C8DE812A9
:1010A0000CC00FB607FCFACFE889F989808185FF6B
:1010B000F5CFCE010E941308F1CF8B8DFE01E80F12
:1010C000F11DE35AFF4FF0820B8FEA89FB89808183
:1010D000806207C0EE89FF896083E889F989808191
:1010E0008064808381E090E0DF91CF911F910F9128
:1010F000FF90EF900895CF93DF93EC01888D8823C4
:10110000C9F0EA89FB89808185FD05C0A889B98974
:101110008C9186FD0FC00FB607FCF5CF808185FF4F
:10112000F2CFA889B9898C9185FFEDCFCE010E94BD
:101130001308E7CFDF91CF9108953FB7F8948091DE
:101140000E0390910F03A0911003B091110326B5E7
:10115000A89B05C02F3F19F00196A11DB11D3FBFEF
:10116000BA2FA92F982F8827820F911DA11DB11D7D
:10117000BC01CD0142E0660F771F881F991F4A9579
:10118000D1F708955F9A08950E948C0ECF93DF9354
:101190001F92CDB7DEB7872F5F982B9A2D989CB5FD
:1011A0009F7B9CBD2D9A9CB590649CBD69830E94D9
:1011B000FC052B9A2D989CB59F7B9CBD2D9A9CB5C8
:1011C00090649CBD6981862F0E94FC055F9A0F90F8
:1011D000DF91CF910895CF93DF931F92CDB7DEB704
:1011E000872F2B9A2D989CB59F7B9CBD2D9A9CB5E3
:1011F00090649CBD69830E94FC052B9A2D989CB538
:101200009F7B9CBD2D9A9CB590649CBD6981862F67
:101210000F90DF91CF910C94FC051F920F920FB6A7
:101220000F9211242F933F934F935F936F937F936C
:101230008F939F93AF93BF93EF93FF938CE092E0D4
:101240000E941308FF91EF91BF91AF919F918F91F1
:101250007F916F915F914F913F912F910F900FBEB2
:101260000F901F9018951F920F920FB60F92112496
:101270002F938F939F93EF93FF93E0911C02F09134
:101280001D028081E0912202F091230282FD12C0B2
:101290009081809125028F5F8F73209126028217A3
:1012A00051F0E0912502F0E0E45FFD4F958F8093CF
:1012B000250201C08081FF91EF919F918F912F9125
:1012C0000F900FBE0F901F90189590E0FC01E95F02
:1012D000FB4F3491FC01ED5BFB4F2491FC01E15D80
:1012E000FB4FE491EE2309F43BC0332339F1333053
:1012F00091F038F43130A9F0323001F584B58F7DAA
:1013000012C0373091F03830A1F03430B9F4809108
:1013100080008F7D03C0809180008F778093800054
:101320000DC084B58F7784BD09C08091B0008F77E0
:1013300003C08091B0008F7D8093B000F0E0EE0F8D
:10134000FF1FE55EFB4FA591B4918FB7F894EC9128
:10135000611103C020952E2301C02E2B2C938FBF2B
:101360000895CF93DF9390E0FC01ED5BFB4F249158
:10137000FC01E15DFB4F8491882361F190E0880FCF
:10138000991FFC01E350FC4FC591D491FC01E55E2F
:10139000FB4FA591B491611109C09FB7F894888162
:1013A000209582238883EC912E230BC0623061F458
:1013B0009FB7F8943881822F809583238883EC919E
:1013C0002E2B2C939FBF06C08FB7F894E8812E2B4D
:1013D00028838FBFDF91CF910895CF93DF93EC01E6
:1013E00061E089E00E94B109209711F460E004C037
:1013F000CF3FD10531F461E089E0DF91CF910C94CA
:101400006509E0E1F4E0E491E330F9F048F4E1301B
:10141000B9F0E230A1F584B5806284BDC8BD34C0A6
:10142000E730E9F0E83019F1E43049F580918000C7
:10143000806280938000D0938B00C0938A0024C088
:1014400084B5806884BDC7BD1FC08091800080685E
:1014500080938000D0938900C093880015C080914C
:10146000B00080688093B000C093B3000DC080913D
:10147000B00080628093B000C093B40005C0C03853
:10148000D1050CF0B8CFB2CFDF91CF9108958F92F4
:101490009F92AF92BF92CF92DF92EF92FF926B0139
:1014A0007C010E949D084B015C01C114D104E10440
:1014B000F104F1F00E949D08DC01CB018819990923
:1014C000AA09BB09883E9340A105B10570F321E04C
:1014D000C21AD108E108F10888EE880E83E0981E50
:1014E000A11CB11CC114D104E104F10419F7DDCF32
:1014F000FF90EF90DF90CF90BF90AF909F908F9034
:1015000008951F920F920FB60F9211242F933F93BD
:101510008F939F93AF93BF9380910A0390910B0396
:10152000A0910C03B0910D033091090323E0230F28
:101530002D3720F40196A11DB11D05C026E8230F0B
:101540000296A11DB11D2093090380930A03909375
:101550000B03A0930C03B0930D0380910E039091A5
:101560000F03A0911003B09111030196A11DB11DAD
:1015700080930E0390930F03A0931003B093110375
:10158000BF91AF919F918F913F912F910F900FBE7F
:101590000F901F901895862F5F982B9A2D989CB5C9
:1015A0009F7B9CBD2D9A9CB590649CBD0E94FC05C0
:1015B0005F9A0895862F5F982B982D989CB59F7BF6
:1015C0009CBD2D9A9CB590649CBD0E94FC055F9AC1
:1015D00008956CE20E94DA0A5F980895AF92BF9274
:1015E000CF92DF92EF92FF920F931F93CF93DF93EF
:1015F000EC015B017A0169016AE20E94DA0AB50135
:10160000CE010E94C608B601CE010E94C6086BE258
:10161000CE010E94DA0AB701CE010E94C608B801C5
:10162000CE01DF91CF911F910F91FF90EF90DF904E
:10163000CF90BF90AF900C94C60886E191E0909354
:10164000AA028093A90280910A0290910B02895A02
:10165000924071F4E091BC02F091BD0290818091C2
:10166000BE0280958923808310920B0210920A0299
:101670000895789484B5826084BD84B5816084BD0A
:1016800085B5826085BD85B5816085BD80916E0020
:10169000816080936E001092810080918100826051
:1016A000809381008091810081608093810080918E
:1016B00080008160809380008091B100846080937D
:1016C000B1008091B00081608093B00080917A0079
:1016D000846080937A0080917A00826080937A009F
:1016E00080917A00816080937A0080917A0080688E
:1016F00080937A001092C100239AE0911C02F0912D
:101700001D0282E08083E0911802F091190210829C
:10171000E0911A02F0911B028FEC80831092240258
:10172000E0912002F091210286E08083E0911E0288
:10173000F0911F02808180618083E0911E02F09110
:101740001F02808188608083E0911E02F0911F0259
:10175000808180688083E0911E02F0911F02808169
:101760008F7D808361E088E00E94B109289861E064
:1017700089E00E94B10961E087E00E94B10961E05F
:101780008DE00E94B10961E08BE00E94B10960E048
:101790008CE00E94B10929985F9A61E086E00E947E
:1017A000B1095E9A109208038CB5837F8CBD8CB50D
:1017B0008F7D8CBDCFB7F89480915801811127C0DF
:1017C000E9E3F4E08491EDE4F4E09491E82FF0E0B3
:1017D000EE0FFF1FE350FC4FA591B491EC91E9236C
:1017E00021F461E08AE00E94650961E08AE00E94DC
:1017F000B1098CB580618CBD8CB580648CBD61E015
:101800008DE00E94B10961E08BE00E94B1098091F6
:1018100058018F5F80935801CFBF8CB58C7F81605A
:101820008CBD8DB581608DBD5F9A289862E370E0B4
:1018300080E090E00E94470A289A68E770E080E024
:1018400090E00E94470AE8E6F0E08F010F5F1F4F2B
:1018500064916F3FB1F1862F807C8038B9F0803C75
:1018600049F1803411F0F801F0CFC62FCF737F011A
:10187000DC2EFFEFEF1AFF0ADD20C9F0F7016491BB
:1018800088EC92E00E94DA0ADA94F3CFC62FCF7385
:101890007F01DC2EFFEFEF1AFF0ADD2041F0F70198
:1018A000649188EC92E00E94CB0ADA94F3CF0C0F9B
:1018B000111DD9CF6F7370E080E090E00E94470A5D
:1018C000D2CF60E070E088EC92E00E94F1038CB52A
:1018D0008C7F8CBD8DB58E7F8DBD8FE790E00E9493
:1018E000ED0980917C00816080937C0080917C0078
:1018F000806480937C0080917A00806880937A0075
:101900008091B00080688093B0008091B0008360C7
:101910008093B0008091B10082608093B1006FEF3E
:101920007FEF88EC92E00E94F103C12CD12C76016C
:10193000CA9404E610E080917A00806480937A0073
:1019400080917A0086FDFCCF80917800909179009B
:101950009C013695279536952795AAE0B0E00E9420
:10196000400EA70196010E94FF0D822F880F982F2D
:10197000990F990F890F31F480E090E00E94ED09F2
:10198000299812C0843630F08FEF90E00E94ED0964
:10199000299A0AC02FEF829FC0011124B8010E942A
:1019A0004F0ECB010E94ED0944E050E060E571E08C
:1019B0008CE092E00E94AB0742E050E065E571E008
:1019C0008CE092E00E94AB07B6CF10920F0210920B
:1019D0000E0288EE93E0A0E0B0E0809310029093B6
:1019E0001102A0931202B093130224E031E030936D
:1019F0000D0220930C0225EC30E030931902209365
:101A0000180224EC30E030931B0220931A0220ECE1
:101A100030E030931D0220931C0221EC30E0309323
:101A20001F0220931E0222EC30E03093210220930B
:101A3000200226EC30E03093230220932202109201
:101A4000250210922602109227021092280210926C
:101A5000AC021092AB028093AD029093AE02A093C1
:101A6000AF02B093B00286E191E09093AA02809316
:101A7000A9021092C0021092BF021092C2021092EC
:101A8000C1021092C4021092C3021092C6021092B8
:101A9000C5026091C7026E7F6D7F6093C702669535
:101AA000617081E068278BE00E94650961E08BE04E
:101AB0000E94B109EEE4F4E0E491E093B902EAE3B4
:101AC000F4E0E491F0E0EE0FFF1FE55EFB4F85913F
:101AD00094919093BB028093BA0260E08AE00E94E6
:101AE000B1098091C70281FD04C061E08AE00E94D3
:101AF00065098AE08093B502EDE4F4E0E491E093B7
:101B0000B602E9E3F4E0E491F0E0EE0FFF1FEB5DD5
:101B1000FB4F859194919093B8028093B7021092F5
:101B200015031092140388EE93E0A0E0B0E08093D8
:101B3000160390931703A0931803B093190388E238
:101B400091E090931303809312031092CB021092B2
:101B5000CA021092CD021092CC0280E491E09093E0
:101B6000CF028093CE0280EF90E09093D1028093D9
:101B7000D0021092D7021092D6021092D502109283
:101B8000D4021092D3021092D2021092DF0210926D
:101B9000DE021092DD021092DC021092DB02109243
:101BA000DA021092D9021092D8021092F802109222
:101BB000F9021092FA021092FB0281E08093FC027B
:101BC0008093FD021092FF021092FE028FEF9FEFB2
:101BD0009093010380930003109207031092060371
:101BE0001092050310920403109203031092020353
:101BF0008AE391E09093C9028093C8020895052E6C
:101C000097FB1EF400940E94160E57FD07D00E9409
:101C10001E0E07FC03D04EF40C94160E5095409502
:101C2000309521953F4F4F4F5F4F08959095809588
:101C3000709561957F4F8F4F9F4F0895A1E21A2EA7
:101C4000AA1BBB1BFD010DC0AA1FBB1FEE1FFF1F60
:101C5000A217B307E407F50720F0A21BB30BE40BB0
:101C6000F50B661F771F881F991F1A9469F76095F7
:101C70007095809590959B01AC01BD01CF010895B1
:101C8000A29FB001B39FC001A39F700D811D1124BD
:101C9000911DB29F700D811D1124911D0895AA1BE5
:101CA000BB1B51E107C0AA1FBB1FA617B70710F047
:101CB000A61BB70B881F991F5A95A9F78095909579
:101CC000BC01CD01089597FB072E16F4009407D0B0
:101CD00077FD09D00E944F0E07FC05D03EF4909589
:101CE00081959F4F0895709561957F4F08950E944B
:101CF000400E332312F48A1B9B0B0C94810E0E941E
:101D0000400EB7FF0895821B930B0895EE0FFF1F3F
:101D10000590F491E02D099481E090E0F8940C9402
:101D2000910E12E0CDE2D2E004C0FE010E94860EC8
:0C1D30002196CE32D107C9F7F894FFCFFE
:101D3C00000000003408AB07D6077B080708E5074E
:101D4C00F907000000009904AB078C059804ED041A
:101D5C0005058004000000007A0566058C05580511
:101D6C005F055C055905000000005802AB078C05A7
:101D7C008B058F05EE0AE90AEB08C208D602C402ED
:081D8C0068656C70000D0A008F
:107E0000112484B714BE81FFF0D085E080938100F7
:107E100082E08093C00088E18093C10086E0809377
:107E2000C20080E18093C4008EE0C9D0259A86E02C
:107E300020E33CEF91E0309385002093840096BBD3
:107E4000B09BFECF1D9AA8958150A9F7CC24DD24C4
:107E500088248394B5E0AB2EA1E19A2EF3E0BF2EE7
:107E6000A2D0813461F49FD0082FAFD0023811F036
:107E7000013811F484E001C083E08DD089C08234E0
:107E800011F484E103C0853419F485E0A6D080C0E4
:107E9000853579F488D0E82EFF2485D0082F10E0AE
:107EA000102F00270E291F29000F111F8ED06801E7
:107EB0006FC0863521F484E090D080E0DECF843638
:107EC00009F040C070D06FD0082F6DD080E0C81688
:107ED00080E7D80618F4F601B7BEE895C0E0D1E017
:107EE00062D089930C17E1F7F0E0CF16F0E7DF06D8
:107EF00018F0F601B7BEE89568D007B600FCFDCFD4
:107F0000A601A0E0B1E02C9130E011968C91119780
:107F100090E0982F8827822B932B1296FA010C0160
:107F200087BEE89511244E5F5F4FF1E0A038BF0790
:107F300051F7F601A7BEE89507B600FCFDCF97BE46
:107F4000E89526C08437B1F42ED02DD0F82E2BD052
:107F50003CD0F601EF2C8F010F5F1F4F84911BD097
:107F6000EA94F801C1F70894C11CD11CFA94CF0C13
:107F7000D11C0EC0853739F428D08EE10CD085E9AC
:107F80000AD08FE07ACF813511F488E018D01DD067
:107F900080E101D065CF982F8091C00085FFFCCF94
:107FA0009093C60008958091C00087FFFCCF809118
:107FB000C00084FD01C0A8958091C6000895E0E648
:107FC000F0E098E1908380830895EDDF803219F02E
:107FD00088E0F5DFFFCF84E1DECF1F93182FE3DFCA
:107FE0001150E9F7F2DF1F91089580E0E8DFEE27F6
:047FF000FF270994CA
:027FFE00040479
:0400000300007E007B
:00000001FF